{
  "fuzzy_prd": "Hey team, we need to build out the core execution engine primitives for the blockchain node project. This is similar to what we did with the value encoding layer on the wallet service — same idea, just applied here to block/tx domain objects. The main ask is that we have a clean way to handle all the different 'block selector' strings that RPC clients throw at us (you know how messy those can get), plus we need solid conversion logic for those database decimal strings into the actual integer types the engine uses internally. There's also the block header derivation piece — we need deterministic hashes with proper parent linkage, and genesis should handle the zero-case correctly. On top of that we need to be able to ingest external block and receipt documents and decode them into our internal model. Finally there's a transaction execution path that runs against some pre-seeded in-memory state — the gas reporting needs to correctly distinguish between a regular transfer and the creation case. One thing that keeps biting us: errors surfaced to the output layer need to be clean category strings, not raw exception dumps. The output format is the flat key=value style we agreed on. Please make sure the code is properly split across files — last time someone just dumped everything in one file and it was a nightmare to review.\n\nQuick follow-up from the questions that came in: for block headers, the hash should be a deterministic 32-byte digest derived solely from the block height, so the timestamp does NOT affect it. Parent linkage is just based on height too, meaning the parent hash for height N is simply the derived hash of height N-1. For genesis at height 0, use the all-zero 32-byte hash as the parent hash, rendered as 0x0000...0000, 64 hex zeros. In general, hashes in output should be rendered as 0x-prefixed 64-hex-digit strings.\n\nOn the block selector side, keyword matching is case-insensitive for latest, pending, earliest, and 'pending' is just an alias for 'latest'. There is no separate pending state here, so both should resolve the same way and output selection=latest. Also, if the selector is a hex string that is exactly 64 hex digits long without a prefix, OR exactly 66 characters including the '0x' prefix, treat it as a hash selection and echo the canonical hash. Any other hex-prefixed value should be treated as a numeric height selection and should echo the decimal height. If it’s not a recognized keyword, valid hash, or valid hex number, return a neutral error and echo the raw selector. This matches the Block Selector Parsing section of the PRD and what’s defined in feature2_block_selector.json.\n\nFor execution, the state should be a freshly initialized in-memory state seeded with funded well-known accounts indexed by integer position. Gas is the simple split we discussed: a plain value transfer between two accounts where 'to_account' is provided uses 21000 gas, and a transaction with no recipient field, treated as an empty contract creation where only 'from_account' is provided, uses 53000 gas.\n\nAlso want to be extra explicit on output hygiene: every error surfaced to stdout MUST be normalized to a neutral category line in the form error=<category>, with any offending parameter on its own field line like selector=<raw>, field=<name>, or value=<raw>. We should not leak host-language exception class names, runtime message suffixes, object-repr renderings, stack traces, or internal type names.\n\nLast thing, for feature 7 in the PRD, encode_value needs round-trip handling for address (20-byte, 0x-prefixed 40-hex-digit), hash (32-byte, 0x-prefixed 64-hex-digit), bytes (0x-prefixed hex), block_number (minimal hex, no leading zeros), gas (minimal hex), and execution_result (bare string or raw JSON object). Those are the cases covered across feature7_1 through feature7_6 test case files.",
  "oracle_data": {
    "task_id": "cloudwalk-stratus-engine-primitives-001",
    "golden_api_signature": "fn handle_command(cmd: &serde_json::Value) -> String",
    "hidden_constraints": [
      {
        "constraint_id": "C006",
        "trigger_keywords": [
          "what happens if a decimal value has a fractional part",
          "can you convert a non-integer decimal to wei",
          "what error is raised for fractional scaled decimal"
        ],
        "oracle_response": "A decimal value that is not a whole number (it has a fractional remainder after scale expansion) cannot be represented as an integer amount and yields a neutral out-of-range error echoing the raw value. A positive power-of-ten scale (e.g. '1E+4') is expanded to its full integer form ('10000'). Plain integer strings pass through unchanged. This applies to both 'wei' and 'nonce' kinds."
      },
      {
        "constraint_id": "C007",
        "trigger_keywords": [
          "how should receipts be ordered in output",
          "what order are transaction hashes listed",
          "sorting order for decoded receipt hashes"
        ],
        "oracle_response": "After decoding a batch of receipts, the output reports the number of distinct transactions indexed, followed by one line per indexed transaction hash. Hashes are listed in ascending lexicographic order (0x-prefixed 64-hex-digit strings sorted ascending). Format: 'transaction_count=N' then one 'transaction_hash=0x...' line per hash."
      },
      {
        "constraint_id": "C008",
        "trigger_keywords": [
          "how should execution_result halted be encoded",
          "what does the encoded output look like for a halted result",
          "format for halted execution result vs success"
        ],
        "oracle_response": "A normal completion is rendered as the bare string 'success'; a reversion is rendered as 'reverted'. An incomplete execution (halted) is rendered as a tagged JSON object carrying a free-text reason, e.g.: encoded={\"halted\":{\"reason\":\"OutOfGas\"}}. Note that the encoded value for success and reverted is quoted (e.g. encoded=\"success\") but the halted object is NOT quoted — it is a raw JSON object literal in the output line."
      },
      {
        "constraint_id": "C009",
        "trigger_keywords": [
          "what is the file structure expected",
          "how should the code be organized across files",
          "monolithic file vs multi-file layout"
        ],
        "oracle_response": "The codebase MUST NOT be a single god file. It must be a multi-file directory tree with a src/ directory for the core domain split by concern (value primitives, hashing/derivation, parsers, VM execution, storage), plus a separate adapter entry point and a tests/ directory. The JSON adapter is solely responsible for translating JSON commands into core domain calls and must remain decoupled from the core system."
      },
      {
        "constraint_id": "C010",
        "trigger_keywords": [
          "how is block number reported in decode_block output",
          "what format is the block height in decode_block response",
          "decimal vs hex for block number in decoded block"
        ],
        "oracle_response": "The decoded block height is reported as a decimal integer in the output (e.g., 'number=58463146'), not as a hex string, even though the raw JSON block document carries it as a 0x-prefixed hex string. The transaction count is also reported as a plain decimal integer (e.g., 'transaction_count=1')."
      },
      {
        "constraint_id": "ARCH001",
        "trigger_keywords": [
          "how should I organize the code",
          "single file or multiple files",
          "project structure",
          "directory layout",
          "should I split into multiple files",
          "monolithic or modular",
          "how complex is the codebase",
          "what files should I create",
          "how to structure the implementation",
          "should I separate business logic from IO",
          "decouple core from IO",
          "should business logic touch stdin stdout",
          "how to separate parsing from logic",
          "SOLID principles",
          "separation of concerns",
          "adapter pattern"
        ],
        "oracle_response": "Scale-driven code organization: match physical structure to domain complexity. For micro-utilities or simple scripts a single well-organized file is fine. For systems with multiple distinct responsibilities (I/O routing, business rules, formatters, etc.) you MUST use a multi-file layout (e.g. src/, tests/) — never a single god file. Do not over-engineer simple problems, but strictly avoid monolithic files for complex domains. Strict separation of concerns is mandatory: core business logic must be completely decoupled from stdin/stdout and JSON parsing. The JSON test cases are a black-box contract for the execution adapter only — NOT the internal data model. Follow SOLID: SRP (separate parsing, routing, core execution, output formatting); OCP (core engine open for extension, closed for modification); DIP (high-level modules depend on abstractions, not I/O details). The public interface must be idiomatic. Errors must be modeled properly (typed exceptions or Result/Monad patterns), not generic faults."
      },
      {
        "constraint_id": "HARNESS001",
        "trigger_keywords": [
          "how does the dispatcher work",
          "how is the program invoked",
          "stdin stdout interface",
          "execution adapter",
          "how to read input",
          "how does the test harness call my code",
          "what is the entry point for testing",
          "how does the runner call the program"
        ],
        "oracle_response": "You must implement an execution adapter (dispatcher) that is logically and ideally physically separate from the core domain. It reads a single JSON object from stdin, inspects the 'action' field to route to the correct core function, then prints the result to stdout matching the per-feature output contract. All policy durations in inputs are in seconds; all time points are epoch milliseconds. The adapter must not contain any business logic — every numeric result and boolean decision is delegated to the core domain."
      },
      {
        "constraint_id": "HARNESS002",
        "trigger_keywords": [
          "how to write test.sh",
          "test harness scaffold",
          "automated test script",
          "how should test.sh work",
          "cases-dir parameter",
          "where does test output go",
          "output file naming format",
          "how are test outputs named",
          "rcb_tests structure",
          "test scaffold deliverable"
        ],
        "oracle_response": "Deliver a bash test harness at rcb_tests/test.sh. It must accept --cases-dir <subdir> (default: test_cases) to point at a directory of *.json case files under rcb_tests/. For each case file it runs every case in the 'cases' array against the dispatcher, writing raw stdout (no PASS/FAIL metadata) to: rcb_tests/stdout/<cases-dir>/{filename_stem}@{case_index_zero_padded_3}.txt Example: rcb_tests/stdout/public_test_cases/feature1_next_retry_at@000.txt Output is namespaced by <cases-dir> so different directories never overwrite each other. A single entry point 'bash rcb_tests/test.sh' runs the full suite with the default dir."
      },
      {
        "constraint_id": "HARNESS003",
        "trigger_keywords": [
          "do you have test cases",
          "are there public test cases",
          "what test cases are provided",
          "can I see the test inputs",
          "what features have test cases",
          "show me the test cases",
          "what test files exist"
        ],
        "oracle_response": "Yes, public test cases are provided, one file per feature. Ask me for a specific feature by name and I will give you the full test case JSON."
      },
      {
        "constraint_id": "TC_feature1_block_header_derivation",
        "trigger_keywords": [
          "test cases for feature1 block header derivation",
          "show me feature1 block header derivation test cases",
          "what are the feature1 block header derivation test inputs",
          "give me the feature1_block_header_derivation test file",
          "test cases for feature 1",
          "feature1 block header derivation expected output",
          "what does feature1 block header derivation expect"
        ],
        "oracle_response": "Here are the public test cases for feature1_block_header_derivation:\n{\n  \"description\": \"Derive a block header from a block height and a timestamp. The output reports the height, the deterministic block hash computed from the height, and the parent hash (the hash of the previous height, or the all-zero hash for the genesis block at height 0).\",\n  \"cases\": [\n    {\n      \"input\": {\n        \"cmd\": \"block_header\",\n        \"number\": \"0x0\",\n        \"timestamp\": 1234567890\n      },\n      \"expected_output\": \"number=0\\nhash=0x011b4d03dd8c01f1049143cf9c4c817e4b167f1d1b83e5c6f0f10d89ba1e7bce\\nparent_hash=0x0000000000000000000000000000000000000000000000000000000000000000\\n\"\n    },\n    {\n      \"input\": {\n        \"cmd\": \"block_header\",\n        \"number\": \"0x1\",\n        \"timestamp\": 1234567891\n      },\n      \"expected_output\": \"number=1\\nhash=0x6c31fc15422ebad28aaf9089c306702f67540b53c7eea8b7d2941044b027100f\\nparent_hash=0x011b4d03dd8c01f1049143cf9c4c817e4b167f1d1b83e5c6f0f10d89ba1e7bce\\n\"\n    }\n  ]\n}"
      },
      {
        "constraint_id": "TC_feature2_block_selector",
        "trigger_keywords": [
          "test cases for feature2 block selector",
          "show me feature2 block selector test cases",
          "what are the feature2 block selector test inputs",
          "give me the feature2_block_selector test file",
          "test cases for feature 2",
          "feature2 block selector expected output",
          "what does feature2 block selector expect"
        ],
        "oracle_response": "Here are the public test cases for feature2_block_selector:\n{\n  \"description\": \"Parse a block selector string into a tagged selection. The keywords 'latest' and 'pending' both resolve to the latest selection; 'earliest' resolves to the earliest selection; a 64- or 66-character hex string resolves to a hash selection; any other hex value resolves to a numeric height selection. Unparseable input yields a neutral error.\",\n  \"cases\": [\n    {\n      \"input\": {\n        \"cmd\": \"block_selector\",\n        \"selector\": \"latest\"\n      },\n      \"expected_output\": \"selection=latest\\n\"\n    },\n    {\n      \"input\": {\n        \"cmd\": \"block_selector\",\n        \"selector\": \"pending\"\n      },\n      \"expected_output\": \"selection=latest\\n\"\n    },\n    {\n      \"input\": {\n        \"cmd\": \"block_selector\",\n        \"selector\": \"0x2\"\n      },\n      \"expected_output\": \"selection=number\\nnumber=2\\n\"\n    },\n    {\n      \"input\": {\n        \"cmd\": \"block_selector\",\n        \"selector\": \"0x011b4d03dd8c01f1049143cf9c4c817e4b167f1d1b83e5c6f0f10d89ba1e7bce\"\n      },\n      \"expected_output\": \"selection=hash\\nhash=0x011b4d03dd8c01f1049143cf9c4c817e4b167f1d1b83e5c6f0f10d89ba1e7bce\\n\"\n    }\n  ]\n}"
      },
      {
        "constraint_id": "TC_feature3_1_decimal_to_wei",
        "trigger_keywords": [
          "test cases for feature3 1 decimal to wei",
          "show me feature3 1 decimal to wei test cases",
          "what are the feature3 1 decimal to wei test inputs",
          "give me the feature3_1_decimal_to_wei test file",
          "test cases for feature 3",
          "feature3 1 decimal to wei expected output",
          "what does feature3 1 decimal to wei expect"
        ],
        "oracle_response": "Here are the public test cases for feature3_1_decimal_to_wei:\n{\n  \"description\": \"Convert a scaled decimal quantity into an unsigned integer native-token amount. A decimal expressed with a positive power-of-ten scale is expanded to its full integer form. A fractional value that is not a whole number cannot be represented and yields a neutral out-of-range error.\",\n  \"cases\": [\n    {\n      \"input\": {\n        \"cmd\": \"decimal_to_integer\",\n        \"kind\": \"wei\",\n        \"value\": \"1E+4\"\n      },\n      \"expected_output\": \"value=10000\\n\"\n    },\n    {\n      \"input\": {\n        \"cmd\": \"decimal_to_integer\",\n        \"kind\": \"wei\",\n        \"value\": \"255\"\n      },\n      \"expected_output\": \"value=255\\n\"\n    }\n  ]\n}"
      },
      {
        "constraint_id": "TC_feature3_2_decimal_to_nonce",
        "trigger_keywords": [
          "test cases for feature3 2 decimal to nonce",
          "show me feature3 2 decimal to nonce test cases",
          "what are the feature3 2 decimal to nonce test inputs",
          "give me the feature3_2_decimal_to_nonce test file",
          "test cases for feature 3",
          "feature3 2 decimal to nonce expected output",
          "what does feature3 2 decimal to nonce expect"
        ],
        "oracle_response": "Here are the public test cases for feature3_2_decimal_to_nonce:\n{\n  \"description\": \"Convert a scaled decimal quantity into an unsigned integer transaction sequence number. A decimal expressed with a positive power-of-ten scale is expanded to its full integer form.\",\n  \"cases\": [\n    {\n      \"input\": {\n        \"cmd\": \"decimal_to_integer\",\n        \"kind\": \"nonce\",\n        \"value\": \"1E+4\"\n      },\n      \"expected_output\": \"value=10000\\n\"\n    }\n  ]\n}"
      },
      {
        "constraint_id": "TC_feature4_block_decoding",
        "trigger_keywords": [
          "test cases for feature4 block decoding",
          "show me feature4 block decoding test cases",
          "what are the feature4 block decoding test inputs",
          "give me the feature4_block_decoding test file",
          "test cases for feature 4",
          "feature4 block decoding expected output",
          "what does feature4 block decoding expect"
        ],
        "oracle_response": "Here are the public test cases for feature4_block_decoding:\n{\n  \"description\": \"Decode a JSON-encoded block document and report its height (as a decimal integer) and the number of transactions it contains.\",\n  \"cases\": [\n    {\n      \"input\": {\n        \"cmd\": \"decode_block\",\n        \"block\": \"{\\n  \\\"author\\\": \\\"0x7bd89e22065e65fc9e2b8015e1119e53815f4fa9\\\",\\n  \\\"difficulty\\\": \\\"0x0\\\",\\n  \\\"extraData\\\": \\\"0x\\\",\\n  \\\"gasLimit\\\": \\\"0x989680\\\",\\n  \\\"gasUsed\\\": \\\"0x1a1933\\\",\\n  \\\"hash\\\": \\\"0x938752fb64673fce23ca299a6c6818669aea3de8889224c8bcf16a507a98b3c0\\\",\\n  \\\"logsBloom\\\": \\\"0x00400800000000800000000000040800000000000180001001000100800080000000402060020000000003002000000000040040000000008400020600140024040001020000001000000008000100002000000100800000000420820000004000020008060000000082010041002800080000000008000200080010000000004401000851000080000020000000000040000000000000001010000020600000410000220100000402080000000000002002820000000000000000000000000000000002000000100000000200141000010104080000110000440008004020001001000020000004000000000000100800000202100c00000080008010008080\\\",\\n  \\\"miner\\\": \\\"0x7bd89e22065e65fc9e2b8015e1119e53815f4fa9\\\",\\n  \\\"nonce\\\": \\\"0x0000000000000000\\\",\\n  \\\"number\\\": \\\"0x37c13aa\\\",\\n  \\\"parentHash\\\": \\\"0xa089c1c840b8c58470e5fb790e9f8fbeb12239fab19b22c8d59e2ed510093dbe\\\",\\n  \\\"receiptsRoot\\\": \\\"0x7814697e943a5fdaabea7dde1555dbf6fbd27a83f9e5b0fda4a4c1a815946dd5\\\",\\n  \\\"sha3Uncles\\\": \\\"0x1dcc4de8dec75d7aab85b567b6ccd41ad312451b948a7413f0a142fd40d49347\\\",\\n  \\\"size\\\": \\\"0xab3\\\",\\n  \\\"stateRoot\\\": \\\"0xce5f38c7cfd159516b2ae656cace439e7c1ac59884f5f118286e79a98d12dbee\\\",\\n  \\\"timestamp\\\": \\\"0x65c2c08f\\\",\\n  \\\"totalDifficulty\\\": \\\"0x0\\\",\\n  \\\"transactions\\\": [\\n    {\\n      \\\"accessList\\\": null,\\n      \\\"blockHash\\\": \\\"0x938752fb64673fce23ca299a6c6818669aea3de8889224c8bcf16a507a98b3c0\\\",\\n      \\\"blockNumber\\\": \\\"0x37c13aa\\\",\\n      \\\"chainId\\\": \\\"0x7d9\\\",\\n      \\\"creates\\\": null,\\n      \\\"from\\\": \\\"0x2ea765ad326d24851781fd7d81c4a7193d5dc903\\\",\\n      \\\"gas\\\": \\\"0x61a80\\\",\\n      \\\"gasPrice\\\": \\\"0x0\\\",\\n      \\\"hash\\\": \\\"0x807e0889673025c10dc0f95d35217e59b2f3acf98912a3eaba375fa15e3534d4\\\",\\n      \\\"input\\\": \\\"0xe3541348000000000000000000000000df76192480b1082a898063e32991fa5108247c860000000000000000000000000000000000000000000000000000000000f4240045303231373334343732303234303230363233323832374c506f4d5879504174\\\",\\n      \\\"nonce\\\": \\\"0xa73ad\\\",\\n      \\\"publicKey\\\": \\\"0xf2251d2f56cc48d79a2700d654e6e5763bf8bd6a33b2dc02ad104b0d255326bff6ae31289468adf0c9983b1b91d6d48d5564952b7930151788ac59526c36679a\\\",\\n      \\\"r\\\": \\\"0x4fe10abce1987e7bcc13d5b90837df22320b1aeb818fdd4d79ecf01b6b1fffbc\\\",\\n      \\\"raw\\\": \\\"0xf8ca830a73ad8083061a80941f94a163c329bec14c73ca46c66150e3c47dbedc80b864e3541348000000000000000000000000df76192480b1082a898063e32991fa5108247c860000000000000000000000000000000000000000000000000000000000f4240045303231373334343732303234303230363233323832374c506f4d5879504174820fd5a04fe10abce1987e7bcc13d5b90837df22320b1aeb818fdd4d79ecf01b6b1fffbca0036ec7073a863e863bd88301d75a7e19f182108f3624447b2d19fac43f110e0b\\\",\\n      \\\"s\\\": \\\"0x36ec7073a863e863bd88301d75a7e19f182108f3624447b2d19fac43f110e0b\\\",\\n      \\\"standardV\\\": \\\"0x0\\\",\\n      \\\"to\\\": \\\"0x1f94a163c329bec14c73ca46c66150e3c47dbedc\\\",\\n      \\\"transactionIndex\\\": \\\"0xb\\\",\\n      \\\"type\\\": \\\"0x0\\\",\\n      \\\"v\\\": \\\"0xfd5\\\",\\n      \\\"value\\\": \\\"0x0\\\"\\n    }\\n  ],\\n  \\\"transactionsRoot\\\": \\\"0xa4513dd3b91d6ed0b90c41701df5066dadd53efaeec189b972855a3131fa7b63\\\",\\n  \\\"uncles\\\": []\\n}\\n\"\n      },\n      \"expected_output\": \"number=58463146\\ntransaction_count=1\\n\"\n    }\n  ]\n}"
      },
      {
        "constraint_id": "TC_feature5_receipt_decoding",
        "trigger_keywords": [
          "test cases for feature5 receipt decoding",
          "show me feature5 receipt decoding test cases",
          "what are the feature5 receipt decoding test inputs",
          "give me the feature5_receipt_decoding test file",
          "test cases for feature 5",
          "feature5 receipt decoding expected output",
          "what does feature5 receipt decoding expect"
        ],
        "oracle_response": "Here are the public test cases for feature5_receipt_decoding:\n{\n  \"description\": \"Decode a list of JSON-encoded transaction receipts into a set keyed by transaction hash, then report how many distinct transactions were indexed and list their transaction hashes.\",\n  \"cases\": [\n    {\n      \"input\": {\n        \"cmd\": \"decode_receipt\",\n        \"receipts\": [\n          \"{\\n  \\\"transactionHash\\\": \\\"0x5a493d5b9e4f36a7569407988e2f9506334de3a7ce3b451c594ab1496cc5e13f\\\",\\n  \\\"transactionIndex\\\": \\\"0x5\\\",\\n  \\\"blockHash\\\": \\\"0x4c66dfac45f38e70b3f4147833bb2a9cd39c6d2bcf14df2e7961af59cb19a0b9\\\",\\n  \\\"blockNumber\\\": \\\"0x37a4cb3\\\",\\n  \\\"from\\\": \\\"0xbae210bd5e97315275648ab7e7c341146064c903\\\",\\n  \\\"to\\\": \\\"0x1f94a163c329bec14c73ca46c66150e3c47dbedc\\\",\\n  \\\"gasUsed\\\": \\\"0x35cef\\\",\\n  \\\"cumulativeGasUsed\\\": \\\"0xc7244\\\",\\n  \\\"contractAddress\\\": null,\\n  \\\"logs\\\": [],\\n  \\\"logsBloom\\\": \\\"0x00000000000000000000000000000000000000000000004000000000000000000000000000000080000002000000000000000000000000000000000000200000000001000000000000000008000100000000000000000000000000000000000000000000000000000000000000000000000000000000000000080010002000004000000050000000000000000000000000000000000000000000000000000000000000000000000002000000000000000000000000008000000000000000100000000002000200000000000000140000000000000000100000000000000000000001000000000000000000000000000000000012000000000000000000000000\\\",\\n  \\\"status\\\": \\\"0x1\\\"\\n}\\n\"\n        ]\n      },\n      \"expected_output\": \"transaction_count=1\\ntransaction_hash=0x5a493d5b9e4f36a7569407988e2f9506334de3a7ce3b451c594ab1496cc5e13f\\n\"\n    }\n  ]\n}"
      },
      {
        "constraint_id": "TC_feature6_transaction_execution",
        "trigger_keywords": [
          "test cases for feature6 transaction execution",
          "show me feature6 transaction execution test cases",
          "what are the feature6 transaction execution test inputs",
          "give me the feature6_transaction_execution test file",
          "test cases for feature 6",
          "feature6 transaction execution expected output",
          "what does feature6 transaction execution expect"
        ],
        "oracle_response": "Here are the public test cases for feature6_transaction_execution:\n{\n  \"description\": \"Execute a zero-value transfer through the virtual machine against a freshly initialized in-memory state seeded with funded well-known accounts. The sender and recipient are chosen by their index in the seeded account set. The output reports the execution result category and the gas consumed: a plain value transfer between two accounts consumes the base transfer cost, while a transaction with no recipient (treated as an empty contract creation) consumes the base creation cost.\",\n  \"cases\": [\n    {\n      \"input\": {\n        \"cmd\": \"execute_transaction\",\n        \"from_account\": 5,\n        \"to_account\": 0\n      },\n      \"expected_output\": \"result=success\\ngas=21000\\n\"\n    },\n    {\n      \"input\": {\n        \"cmd\": \"execute_transaction\",\n        \"from_account\": 5\n      },\n      \"expected_output\": \"result=success\\ngas=53000\\n\"\n    }\n  ]\n}"
      },
      {
        "constraint_id": "TC_feature7_1_roundtrip_address",
        "trigger_keywords": [
          "test cases for feature7 1 roundtrip address",
          "show me feature7 1 roundtrip address test cases",
          "what are the feature7 1 roundtrip address test inputs",
          "give me the feature7_1_roundtrip_address test file",
          "test cases for feature 7",
          "feature7 1 roundtrip address expected output",
          "what does feature7 1 roundtrip address expect"
        ],
        "oracle_response": "Here are the public test cases for feature7_1_roundtrip_address:\n{\n  \"description\": \"Decode an account address from its lowercase hex string wire form and re-emit the canonical encoding. A 20-byte address is rendered as a 0x-prefixed 40-hex-digit string. Malformed hex yields a neutral invalid-value error.\",\n  \"cases\": [\n    {\n      \"input\": {\n        \"cmd\": \"encode_value\",\n        \"type\": \"address\",\n        \"value\": \"0x00000000000000000000000000000000000000ff\"\n      },\n      \"expected_output\": \"encoded=\\\"0x00000000000000000000000000000000000000ff\\\"\\n\"\n    }\n  ]\n}"
      },
      {
        "constraint_id": "TC_feature7_2_roundtrip_hash",
        "trigger_keywords": [
          "test cases for feature7 2 roundtrip hash",
          "show me feature7 2 roundtrip hash test cases",
          "what are the feature7 2 roundtrip hash test inputs",
          "give me the feature7_2_roundtrip_hash test file",
          "test cases for feature 7",
          "feature7 2 roundtrip hash expected output",
          "what does feature7 2 roundtrip hash expect"
        ],
        "oracle_response": "Here are the public test cases for feature7_2_roundtrip_hash:\n{\n  \"description\": \"Decode a 32-byte hash from its 0x-prefixed hex string wire form and re-emit the canonical 0x-prefixed 64-hex-digit encoding.\",\n  \"cases\": [\n    {\n      \"input\": {\n        \"cmd\": \"encode_value\",\n        \"type\": \"hash\",\n        \"value\": \"0x011b4d03dd8c01f1049143cf9c4c817e4b167f1d1b83e5c6f0f10d89ba1e7bce\"\n      },\n      \"expected_output\": \"encoded=\\\"0x011b4d03dd8c01f1049143cf9c4c817e4b167f1d1b83e5c6f0f10d89ba1e7bce\\\"\\n\"\n    }\n  ]\n}"
      },
      {
        "constraint_id": "TC_feature7_3_roundtrip_bytes",
        "trigger_keywords": [
          "test cases for feature7 3 roundtrip bytes",
          "show me feature7 3 roundtrip bytes test cases",
          "what are the feature7 3 roundtrip bytes test inputs",
          "give me the feature7_3_roundtrip_bytes test file",
          "test cases for feature 7",
          "feature7 3 roundtrip bytes expected output",
          "what does feature7 3 roundtrip bytes expect"
        ],
        "oracle_response": "Here are the public test cases for feature7_3_roundtrip_bytes:\n{\n  \"description\": \"Decode an arbitrary byte payload from its 0x-prefixed hex string wire form and re-emit the canonical 0x-prefixed hex encoding.\",\n  \"cases\": [\n    {\n      \"input\": {\n        \"cmd\": \"encode_value\",\n        \"type\": \"bytes\",\n        \"value\": \"0xdeadbeef\"\n      },\n      \"expected_output\": \"encoded=\\\"0xdeadbeef\\\"\\n\"\n    }\n  ]\n}"
      },
      {
        "constraint_id": "TC_feature7_4_roundtrip_block_number",
        "trigger_keywords": [
          "test cases for feature7 4 roundtrip block number",
          "show me feature7 4 roundtrip block number test cases",
          "what are the feature7 4 roundtrip block number test inputs",
          "give me the feature7_4_roundtrip_block_number test file",
          "test cases for feature 7",
          "feature7 4 roundtrip block number expected output",
          "what does feature7 4 roundtrip block number expect"
        ],
        "oracle_response": "Here are the public test cases for feature7_4_roundtrip_block_number:\n{\n  \"description\": \"Decode a block height from its 0x-prefixed minimal hex wire form and re-emit the canonical minimal hex encoding (no leading-zero padding).\",\n  \"cases\": [\n    {\n      \"input\": {\n        \"cmd\": \"encode_value\",\n        \"type\": \"block_number\",\n        \"value\": \"0x37c13aa\"\n      },\n      \"expected_output\": \"encoded=\\\"0x37c13aa\\\"\\n\"\n    }\n  ]\n}"
      },
      {
        "constraint_id": "TC_feature7_5_roundtrip_gas",
        "trigger_keywords": [
          "test cases for feature7 5 roundtrip gas",
          "show me feature7 5 roundtrip gas test cases",
          "what are the feature7 5 roundtrip gas test inputs",
          "give me the feature7_5_roundtrip_gas test file",
          "test cases for feature 7",
          "feature7 5 roundtrip gas expected output",
          "what does feature7 5 roundtrip gas expect"
        ],
        "oracle_response": "Here are the public test cases for feature7_5_roundtrip_gas:\n{\n  \"description\": \"Decode a gas quantity from its 0x-prefixed hex wire form and re-emit the canonical minimal hex encoding.\",\n  \"cases\": [\n    {\n      \"input\": {\n        \"cmd\": \"encode_value\",\n        \"type\": \"gas\",\n        \"value\": \"0x5208\"\n      },\n      \"expected_output\": \"encoded=\\\"0x5208\\\"\\n\"\n    }\n  ]\n}"
      },
      {
        "constraint_id": "TC_feature7_6_roundtrip_execution_result",
        "trigger_keywords": [
          "test cases for feature7 6 roundtrip execution result",
          "show me feature7 6 roundtrip execution result test cases",
          "what are the feature7 6 roundtrip execution result test inputs",
          "give me the feature7_6_roundtrip_execution_result test file",
          "test cases for feature 7",
          "feature7 6 roundtrip execution result expected output",
          "what does feature7 6 roundtrip execution result expect"
        ],
        "oracle_response": "Here are the public test cases for feature7_6_roundtrip_execution_result:\n{\n  \"description\": \"Decode an execution-outcome tag from its wire form and re-emit the canonical encoding. A normal completion and a reversion are rendered as the bare strings 'success' and 'reverted'; an incomplete execution is rendered as a tagged object carrying a free-text reason.\",\n  \"cases\": [\n    {\n      \"input\": {\n        \"cmd\": \"encode_value\",\n        \"type\": \"execution_result\",\n        \"value\": \"success\"\n      },\n      \"expected_output\": \"encoded=\\\"success\\\"\\n\"\n    },\n    {\n      \"input\": {\n        \"cmd\": \"encode_value\",\n        \"type\": \"execution_result\",\n        \"value\": {\n          \"halted\": {\n            \"reason\": \"OutOfGas\"\n          }\n        }\n      },\n      \"expected_output\": \"encoded={\\\"halted\\\":{\\\"reason\\\":\\\"OutOfGas\\\"}}\\n\"\n    }\n  ]\n}"
      }
    ],
    "context_pointers": [
      {
        "vague_reference": "pre-seeded in-memory state",
        "actual_meaning": "The in-memory state for transaction execution (Feature 6) is initialized with funded well-known accounts accessible by integer index (from_account and to_account fields are integer indices into this seeded account set, not raw addresses)."
      },
      {
        "vague_reference": "the flat key=value style we agreed on",
        "actual_meaning": "The adapter output format: a flat newline-terminated key=value record where every line including the last ends with a newline character. Defined in the 'Adapter command convention' section of the PRD."
      }
    ],
    "fallback_response": "I don't have specific details on that aspect from the original discussions. Please refer to the PRD (start.md) for the authoritative specification, and check the public test case JSON files under rcb_tests/public_test_cases/ for the exact expected input/output contract. If something is still unclear, make a reasonable design choice consistent with the patterns already established in the other features."
  },
  "public_test_cases": {
    "feature1_block_header_derivation.json": {
      "description": "Derive a block header from a block height and a timestamp. The output reports the height, the deterministic block hash computed from the height, and the parent hash (the hash of the previous height, or the all-zero hash for the genesis block at height 0).",
      "cases": [
        {
          "input": {
            "cmd": "block_header",
            "number": "0x0",
            "timestamp": 1234567890
          },
          "expected_output": "number=0\nhash=0x011b4d03dd8c01f1049143cf9c4c817e4b167f1d1b83e5c6f0f10d89ba1e7bce\nparent_hash=0x0000000000000000000000000000000000000000000000000000000000000000\n"
        },
        {
          "input": {
            "cmd": "block_header",
            "number": "0x1",
            "timestamp": 1234567891
          },
          "expected_output": "number=1\nhash=0x6c31fc15422ebad28aaf9089c306702f67540b53c7eea8b7d2941044b027100f\nparent_hash=0x011b4d03dd8c01f1049143cf9c4c817e4b167f1d1b83e5c6f0f10d89ba1e7bce\n"
        }
      ]
    },
    "feature2_block_selector.json": {
      "description": "Parse a block selector string into a tagged selection. The keywords 'latest' and 'pending' both resolve to the latest selection; 'earliest' resolves to the earliest selection; a 64- or 66-character hex string resolves to a hash selection; any other hex value resolves to a numeric height selection. Unparseable input yields a neutral error.",
      "cases": [
        {
          "input": {
            "cmd": "block_selector",
            "selector": "latest"
          },
          "expected_output": "selection=latest\n"
        },
        {
          "input": {
            "cmd": "block_selector",
            "selector": "pending"
          },
          "expected_output": "selection=latest\n"
        },
        {
          "input": {
            "cmd": "block_selector",
            "selector": "0x2"
          },
          "expected_output": "selection=number\nnumber=2\n"
        },
        {
          "input": {
            "cmd": "block_selector",
            "selector": "0x011b4d03dd8c01f1049143cf9c4c817e4b167f1d1b83e5c6f0f10d89ba1e7bce"
          },
          "expected_output": "selection=hash\nhash=0x011b4d03dd8c01f1049143cf9c4c817e4b167f1d1b83e5c6f0f10d89ba1e7bce\n"
        }
      ]
    },
    "feature3_1_decimal_to_wei.json": {
      "description": "Convert a scaled decimal quantity into an unsigned integer native-token amount. A decimal expressed with a positive power-of-ten scale is expanded to its full integer form. A fractional value that is not a whole number cannot be represented and yields a neutral out-of-range error.",
      "cases": [
        {
          "input": {
            "cmd": "decimal_to_integer",
            "kind": "wei",
            "value": "1E+4"
          },
          "expected_output": "value=10000\n"
        },
        {
          "input": {
            "cmd": "decimal_to_integer",
            "kind": "wei",
            "value": "255"
          },
          "expected_output": "value=255\n"
        }
      ]
    },
    "feature3_2_decimal_to_nonce.json": {
      "description": "Convert a scaled decimal quantity into an unsigned integer transaction sequence number. A decimal expressed with a positive power-of-ten scale is expanded to its full integer form.",
      "cases": [
        {
          "input": {
            "cmd": "decimal_to_integer",
            "kind": "nonce",
            "value": "1E+4"
          },
          "expected_output": "value=10000\n"
        }
      ]
    },
    "feature4_block_decoding.json": {
      "description": "Decode a JSON-encoded block document and report its height (as a decimal integer) and the number of transactions it contains.",
      "cases": [
        {
          "input": {
            "cmd": "decode_block",
            "block": "{\n  \"author\": \"0x7bd89e22065e65fc9e2b8015e1119e53815f4fa9\",\n  \"difficulty\": \"0x0\",\n  \"extraData\": \"0x\",\n  \"gasLimit\": \"0x989680\",\n  \"gasUsed\": \"0x1a1933\",\n  \"hash\": \"0x938752fb64673fce23ca299a6c6818669aea3de8889224c8bcf16a507a98b3c0\",\n  \"logsBloom\": \"0x00400800000000800000000000040800000000000180001001000100800080000000402060020000000003002000000000040040000000008400020600140024040001020000001000000008000100002000000100800000000420820000004000020008060000000082010041002800080000000008000200080010000000004401000851000080000020000000000040000000000000001010000020600000410000220100000402080000000000002002820000000000000000000000000000000002000000100000000200141000010104080000110000440008004020001001000020000004000000000000100800000202100c00000080008010008080\",\n  \"miner\": \"0x7bd89e22065e65fc9e2b8015e1119e53815f4fa9\",\n  \"nonce\": \"0x0000000000000000\",\n  \"number\": \"0x37c13aa\",\n  \"parentHash\": \"0xa089c1c840b8c58470e5fb790e9f8fbeb12239fab19b22c8d59e2ed510093dbe\",\n  \"receiptsRoot\": \"0x7814697e943a5fdaabea7dde1555dbf6fbd27a83f9e5b0fda4a4c1a815946dd5\",\n  \"sha3Uncles\": \"0x1dcc4de8dec75d7aab85b567b6ccd41ad312451b948a7413f0a142fd40d49347\",\n  \"size\": \"0xab3\",\n  \"stateRoot\": \"0xce5f38c7cfd159516b2ae656cace439e7c1ac59884f5f118286e79a98d12dbee\",\n  \"timestamp\": \"0x65c2c08f\",\n  \"totalDifficulty\": \"0x0\",\n  \"transactions\": [\n    {\n      \"accessList\": null,\n      \"blockHash\": \"0x938752fb64673fce23ca299a6c6818669aea3de8889224c8bcf16a507a98b3c0\",\n      \"blockNumber\": \"0x37c13aa\",\n      \"chainId\": \"0x7d9\",\n      \"creates\": null,\n      \"from\": \"0x2ea765ad326d24851781fd7d81c4a7193d5dc903\",\n      \"gas\": \"0x61a80\",\n      \"gasPrice\": \"0x0\",\n      \"hash\": \"0x807e0889673025c10dc0f95d35217e59b2f3acf98912a3eaba375fa15e3534d4\",\n      \"input\": \"0xe3541348000000000000000000000000df76192480b1082a898063e32991fa5108247c860000000000000000000000000000000000000000000000000000000000f4240045303231373334343732303234303230363233323832374c506f4d5879504174\",\n      \"nonce\": \"0xa73ad\",\n      \"publicKey\": \"0xf2251d2f56cc48d79a2700d654e6e5763bf8bd6a33b2dc02ad104b0d255326bff6ae31289468adf0c9983b1b91d6d48d5564952b7930151788ac59526c36679a\",\n      \"r\": \"0x4fe10abce1987e7bcc13d5b90837df22320b1aeb818fdd4d79ecf01b6b1fffbc\",\n      \"raw\": \"0xf8ca830a73ad8083061a80941f94a163c329bec14c73ca46c66150e3c47dbedc80b864e3541348000000000000000000000000df76192480b1082a898063e32991fa5108247c860000000000000000000000000000000000000000000000000000000000f4240045303231373334343732303234303230363233323832374c506f4d5879504174820fd5a04fe10abce1987e7bcc13d5b90837df22320b1aeb818fdd4d79ecf01b6b1fffbca0036ec7073a863e863bd88301d75a7e19f182108f3624447b2d19fac43f110e0b\",\n      \"s\": \"0x36ec7073a863e863bd88301d75a7e19f182108f3624447b2d19fac43f110e0b\",\n      \"standardV\": \"0x0\",\n      \"to\": \"0x1f94a163c329bec14c73ca46c66150e3c47dbedc\",\n      \"transactionIndex\": \"0xb\",\n      \"type\": \"0x0\",\n      \"v\": \"0xfd5\",\n      \"value\": \"0x0\"\n    }\n  ],\n  \"transactionsRoot\": \"0xa4513dd3b91d6ed0b90c41701df5066dadd53efaeec189b972855a3131fa7b63\",\n  \"uncles\": []\n}\n"
          },
          "expected_output": "number=58463146\ntransaction_count=1\n"
        }
      ]
    },
    "feature5_receipt_decoding.json": {
      "description": "Decode a list of JSON-encoded transaction receipts into a set keyed by transaction hash, then report how many distinct transactions were indexed and list their transaction hashes.",
      "cases": [
        {
          "input": {
            "cmd": "decode_receipt",
            "receipts": [
              "{\n  \"transactionHash\": \"0x5a493d5b9e4f36a7569407988e2f9506334de3a7ce3b451c594ab1496cc5e13f\",\n  \"transactionIndex\": \"0x5\",\n  \"blockHash\": \"0x4c66dfac45f38e70b3f4147833bb2a9cd39c6d2bcf14df2e7961af59cb19a0b9\",\n  \"blockNumber\": \"0x37a4cb3\",\n  \"from\": \"0xbae210bd5e97315275648ab7e7c341146064c903\",\n  \"to\": \"0x1f94a163c329bec14c73ca46c66150e3c47dbedc\",\n  \"gasUsed\": \"0x35cef\",\n  \"cumulativeGasUsed\": \"0xc7244\",\n  \"contractAddress\": null,\n  \"logs\": [],\n  \"logsBloom\": \"0x00000000000000000000000000000000000000000000004000000000000000000000000000000080000002000000000000000000000000000000000000200000000001000000000000000008000100000000000000000000000000000000000000000000000000000000000000000000000000000000000000080010002000004000000050000000000000000000000000000000000000000000000000000000000000000000000002000000000000000000000000008000000000000000100000000002000200000000000000140000000000000000100000000000000000000001000000000000000000000000000000000012000000000000000000000000\",\n  \"status\": \"0x1\"\n}\n"
            ]
          },
          "expected_output": "transaction_count=1\ntransaction_hash=0x5a493d5b9e4f36a7569407988e2f9506334de3a7ce3b451c594ab1496cc5e13f\n"
        }
      ]
    },
    "feature6_transaction_execution.json": {
      "description": "Execute a zero-value transfer through the virtual machine against a freshly initialized in-memory state seeded with funded well-known accounts. The sender and recipient are chosen by their index in the seeded account set. The output reports the execution result category and the gas consumed: a plain value transfer between two accounts consumes the base transfer cost, while a transaction with no recipient (treated as an empty contract creation) consumes the base creation cost.",
      "cases": [
        {
          "input": {
            "cmd": "execute_transaction",
            "from_account": 5,
            "to_account": 0
          },
          "expected_output": "result=success\ngas=21000\n"
        },
        {
          "input": {
            "cmd": "execute_transaction",
            "from_account": 5
          },
          "expected_output": "result=success\ngas=53000\n"
        }
      ]
    },
    "feature7_1_roundtrip_address.json": {
      "description": "Decode an account address from its lowercase hex string wire form and re-emit the canonical encoding. A 20-byte address is rendered as a 0x-prefixed 40-hex-digit string. Malformed hex yields a neutral invalid-value error.",
      "cases": [
        {
          "input": {
            "cmd": "encode_value",
            "type": "address",
            "value": "0x00000000000000000000000000000000000000ff"
          },
          "expected_output": "encoded=\"0x00000000000000000000000000000000000000ff\"\n"
        }
      ]
    },
    "feature7_2_roundtrip_hash.json": {
      "description": "Decode a 32-byte hash from its 0x-prefixed hex string wire form and re-emit the canonical 0x-prefixed 64-hex-digit encoding.",
      "cases": [
        {
          "input": {
            "cmd": "encode_value",
            "type": "hash",
            "value": "0x011b4d03dd8c01f1049143cf9c4c817e4b167f1d1b83e5c6f0f10d89ba1e7bce"
          },
          "expected_output": "encoded=\"0x011b4d03dd8c01f1049143cf9c4c817e4b167f1d1b83e5c6f0f10d89ba1e7bce\"\n"
        }
      ]
    },
    "feature7_3_roundtrip_bytes.json": {
      "description": "Decode an arbitrary byte payload from its 0x-prefixed hex string wire form and re-emit the canonical 0x-prefixed hex encoding.",
      "cases": [
        {
          "input": {
            "cmd": "encode_value",
            "type": "bytes",
            "value": "0xdeadbeef"
          },
          "expected_output": "encoded=\"0xdeadbeef\"\n"
        }
      ]
    },
    "feature7_4_roundtrip_block_number.json": {
      "description": "Decode a block height from its 0x-prefixed minimal hex wire form and re-emit the canonical minimal hex encoding (no leading-zero padding).",
      "cases": [
        {
          "input": {
            "cmd": "encode_value",
            "type": "block_number",
            "value": "0x37c13aa"
          },
          "expected_output": "encoded=\"0x37c13aa\"\n"
        }
      ]
    },
    "feature7_5_roundtrip_gas.json": {
      "description": "Decode a gas quantity from its 0x-prefixed hex wire form and re-emit the canonical minimal hex encoding.",
      "cases": [
        {
          "input": {
            "cmd": "encode_value",
            "type": "gas",
            "value": "0x5208"
          },
          "expected_output": "encoded=\"0x5208\"\n"
        }
      ]
    },
    "feature7_6_roundtrip_execution_result.json": {
      "description": "Decode an execution-outcome tag from its wire form and re-emit the canonical encoding. A normal completion and a reversion are rendered as the bare strings 'success' and 'reverted'; an incomplete execution is rendered as a tagged object carrying a free-text reason.",
      "cases": [
        {
          "input": {
            "cmd": "encode_value",
            "type": "execution_result",
            "value": "success"
          },
          "expected_output": "encoded=\"success\"\n"
        },
        {
          "input": {
            "cmd": "encode_value",
            "type": "execution_result",
            "value": {
              "halted": {
                "reason": "OutOfGas"
              }
            }
          },
          "expected_output": "encoded={\"halted\":{\"reason\":\"OutOfGas\"}}\n"
        }
      ]
    }
  },
  "_medium_meta": {
    "revealed_c": [
      "C001",
      "C002",
      "C003",
      "C004",
      "C005"
    ],
    "kept_c": [
      "C006",
      "C007",
      "C008",
      "C009",
      "C010"
    ],
    "revealed_cp": 2,
    "kept_cp": 2
  }
}